:1000000005308A00032D0000FF00030E8301A100CC
:100010000A08A0008A010408A2007708A300780853
:10002000A4007908A5007A08A60003170D08031399
:10003000A70003170F080313A80003170C080313E6
:10004000A90003170E080313AA00831383120B1EC3
:100050002B288B184C28220884002308F70024083A
:10006000F8002508F9002608FA00270803178D0074
:100070000313280803178F000313290803178C00A4
:1000800003132A0803178E00031320088A00210E89
:100090008300FF0E7F0E09008A110A124F282B0BD6
:1000A000592890010230AB000B120B138B138B1BE2
:1000B0005628AB08031D6328253090008E018F0160
:1000C0008E010130AB008316881108308312880638
:1000D0008B108A110A122B280C29E530E43C2E17CC
:1000E0002E0500000C1066103D1025182E1B66050D
:1000F0000000443084008313000803198C28023068
:10010000F800F701F70B8228F80B81289730F700E9
:10011000F70B8828800B7F2808004B0EF039F7007A
:100120000F300805770488000000081497289828E5
:10013000081008000808F700080E0F39F80008003A
:100140008316081088100811831288100F30831648
:100150000805F03888008312081500000814000014
:100160009A207808CB00081000000814B7289A20BD
:100170007808CA0008100F3083160805880083121B
:100180004B0EF700F030F70577084A04F8007808BE
:10019000CA00CA1BA628481C8810481888140000EA
:1001A000081100000810490ECA000F30CA054A089D
:1001B000CB008D2049080F39CA00CB008D200800E4
:1001C0002830B7000C30B8000130B9000630BA0052
:1001D0000810881008110F308316080588000810D1
:1001E000881008110F308312C40079200130B60046
:1001F0003608033C031C04290330CB008D20053056
:10020000C4007920B60AF8280230CB008D200530D2
:10021000C4007920B6013608033C031C1B29373083
:100220003607840083130008BB00C8013B08C900DF
:10023000A020B60A0B298A110A12332D450B212959
:1002400024294030C6002529C60101304402C607D2
:1002500046088038C700C8014708C900A020080028
:100260004308073A03193E290B3A03194329063A72
:1002700003194B29023A0319512956290130C400A8
:10028000C5001E215B29C8010130C900A020023031
:10029000C40079205B290130C4000230C5001E2152
:1002A0005B29C8011030C900A0205B290130C800BB
:1002B0004308C900A02008000B08B6008B13831662
:1002C00003178C170C140000000083120313B61BD5
:1002D0008B1703170C087F390319B0290313B600D5
:1002E00003170D080313B70003170F080313B80013
:1002F0003608C3003021370803178D000313380870
:1003000003178F0003130B08B9008B138316031711
:100310008C170C140000000083120313B91B8B17F9
:1003200003170C0D0E0D7F390319B0290313B60006
:1003300003170D080313B70003170F080313B800C2
:100340003608C3003021370803178D00031338081F
:1003500003178F008D0A03198F0A03135C290317F3
:1003600003138A110A123A2D8E30F7003708F8006D
:100370003608F900FA01F808031DC8297908F800C1
:10038000F9010830F702F808031DC829F701D02940
:100390000310F81BCF29F90DF80DF703C829F8133E
:1003A0008A110A12512D43080319432ACB0047082A
:1003B0000319432ACB070318E4297F30CB02031C1F
:1003C000432A0319432AE8298130CB070318432A1B
:1003D0004B08F700F801F901FA014408CF00CF17E4
:1003E0004508CE004608CD001830CB00CC014D1C8E
:1003F000112A4A08FA07031C032AF90A031D032AD3
:10040000F80A0319CC174908F907031C0A2AF80A45
:100410000319CC174808C500C5174508F807031885
:10042000CC17CC0DF80CF90CFA0CCF0CCE0CCD0C73
:100430000310CB0BF6290130F7070318432AF81BEA
:10044000282ACF0DFA0DF90DF80DF7030319432AE9
:10045000CF1F392AFA0A031D392AF90A031D392A3E
:10046000F80A031D392AF80CF90CFA0CF70A0319DB
:10047000432A4408CC004808CC06CC1F412AF81770
:10048000472AF813472AF701F801F901FA01080091
:10049000360803190D2BC2003A0803190D2BC202AE
:1004A000031C572A7F30C20703180D2B5D2A8130A9
:1004B000C202031C0D2B03190D2B4208F700F80193
:1004C000F901FA01C1013708C000C0173808BF00A0
:1004D0003908BE001930C2003D08BE020318802A48
:1004E0000130BF020318802AC0020318802AC1020B
:1004F0000318802AC10AC00ABF0A3D08BE07B22AF3
:100500003C08BF0203189B2A0130C00203189B2A33
:10051000C10203189B2AC10AC00A3C08BF073D0854
:10052000BE07031CB22ABF0A031DB22AC00A031D5C
:10053000B22AC10AB22A3B088038C0020318B12A85
:100540000130C1020318B12AC10A3B088038C00734
:100550003C08BF07031C8F2AC00A031D8F2AC10A4B
:100560008F2A7A14C20BB52AC02A0310BE0DBF0D04
:10057000C00DC10D0310FA0DF90DF80DC30D6C2A55
:10058000431CC82A0310F80CF90CFA0CC30CCB2A34
:10059000F70303190D2BC31BF42A0310BE0DBF0D67
:1005A000C00DC10D3D08BE020318E02A0130BF0294
:1005B0000318E02AC0020318E02AC102031C032B1F
:1005C0003C08BF020318EB2A0130C0020318EB2AD3
:1005D000C102031C032B3B088038C0020318F42A15
:1005E0000130C102031C032BFA0A031D032BF90A75
:1005F000031D032BF80A031D032BF70A03190D2B08
:10060000F80CF90CFA0C3708C2003B08C206C21FEE
:100610000B2BF817112BF813112BF701F801F90127
:10062000FA018A110A12782D0B08B7008B13831672
:1006300003178C170C140000000083120313B71B60
:100640008B1703184B2B03170C087F390313B700C4
:1006500003170D080313B80003170F080313B9009D
:100660003708C3003021380803178D0003133908F9
:1006700003178F0003130B08BA008B13831603179D
:100680008C170C140000000083120313BA1B8B1785
:10069000B60B4B2B6A2B03170C0D0E0D7F39031372
:1006A000B70003170D080313B80003170F0803134F
:1006B000B9003708C3003021380803178D00031331
:1006C000390803178F008D0A03198F0A03100313CB
:1006D000B60B142B8A110A128A2D8318722B4B30F9
:1006E00084008313F701F801F901FA01CB01CC0171
:1006F000CD01CE014A084904480447040319B02B30
:100700002030CF000310C30DC40DC50DC60DCB0D99
:10071000CC0DCD0DCE0D4A084E02031D992B490874
:100720004D02031D992B48084C02031D992B4708C5
:100730004B02031CAA2B4708CB024808031C480F96
:10074000CC024908031C490FCD024A08031C4A0F7A
:10075000CE020314F70DF80DF90DFA0DCF0B822B15
:100760004B088000840A4C088000840A4D088000F1
:10077000840A4E08800008000408BB003A08BD0047
:100780000319DB2B3908C6003808C5003708C40038
:100790003608C300CA01C9012030C8008230C70032
:1007A000D3217A08B9007908B8007808B70077082B
:1007B000B600BD0BC22B3908C6003808C500370883
:1007C000C4003608C3004308B63CC300FA0144081D
:1007D000C700C4170310C40CC50CC60CFA0CF90CE6
:1007E000F80CF70CC30BEA2BC71F012CF709F8090B
:1007F000F909FA09F70A0319F80A0319F90A03199A
:10080000FA0A7A08B9007908B8007808B7007708BA
:10081000B600B91F182CBB03BB16B609B709B80937
:10082000B909B60A0319B70A0319B80A0319B90AAC
:100830003B30C2009A30C100CA30C000BF010A304C
:10084000BD003A080319BB0A8314363084008313B1
:100850003908C6003808C5003708C4003608C30088
:100860004208CA004108C9004008C8003F08C70044
:100870006D237808F708031D502C3A0A3D0203192E
:10088000502C3B080319522C0F393D0203194A2CF6
:100890000318822CBB1B822C3B1B522C20307E2C3D
:1008A0002030BB05BB1E602CBB123A08031DBB03E6
:1008B0007708BB002D30C30030213B08F700BB0197
:1008C0003A083D02031D6E2C7708BB002E30C30092
:1008D00030213B08F7002030BB0500303030BB1E14
:1008E0007E2CBB123A08031DBB037708BB002D30DA
:1008F000C30030213B08F700BB013030F707770811
:10090000C300302183104208C6004108C5004008DA
:10091000C4003F08C300CA01C901C8010A30C700AA
:100920006D237A08C2007908C1007808C0007708F2
:10093000BF00BD0B242C8A110A12972DBE0104089A
:10094000BD003E10831B3E14370EF038B900B907C6
:10095000E23EBA00323EBC0037080F39BA07BA0788
:10096000BC07E93EBB00BB07BB07360E0F39BB0710
:10097000BC07BB0DBC0DBC09BC0D36080F39BC074C
:10098000B90D0730B8000A30BC07BB03031CC42CE8
:10099000BB07BA03031CC82CBA07B903031CCC2C31
:1009A000B907B803031CD02C3830840083130730F8
:1009B0003D053D1384073C30040203193D17000830
:1009C000F700031DEB2C3D1BEB2C3D1AFD2CBD1934
:1009D000EB2C2030EE2CBD153D123030F707B7015F
:1009E0000408B6003710831B37147708C300302182
:1009F00036088400831337188317840A3D1FDB2CC5
:100A00008A110A12A12D03081F3983007130831641
:100A10008F0090010F088312AB01AD01AC01B10151
:100A2000B001AF01AE01B501B401B301B20183164B
:100A300003170908C039890003131F129F120030E1
:100A4000031788008312870188018901831371309D
:100A5000831603138F0090010F08831290010B1669
:100A6000C0308B04E0286C3003178D0000308F00FD
:100A700003135C292B08023C031DB02DAD01AC0112
:100A80000F08FA000E08F7000F087A02031D402D28
:100A90007708AC007A08AD002D08B7002C08B60026
:100AA000B4297A08C6007908C5007808C400770818
:100AB000C300BD30CA003730C9000630C8006C30F2
:100AC000C700D3217A08B1007908B0007808AF00D8
:100AD0007708AE00B901B801B7017F30B600310820
:100AE000BD003008BC002F08BB002E08BA00482A01
:100AF0007A08B5007908B4007808B3007708B20026
:100B0000723003178D0000308F000310063003137E
:100B1000B600142BC93084003508B9003408B80079
:100B20003308B7003208B6000630BA00BC2B0A30D2
:100B3000C3003021103084002D08B7002C08B60007
:100B40009E2C0230B600FA30C4007920B60BA32DDB
:100B50008E018F018E01AB018B100B16C0308B0400
:040B60003A2D6300C7
:04400E00E42CFF3F60
:00000001FF
;PIC16F887
;CRC=CD08  CREATED="18-mar.-23 09:26"
